:020000040800F2
:10000000380500204901000821030008B502000856
:100010001D030008910100089D0C0008000000006D
:10002000000000000000000000000000AD04000817
:1000300095010008000000009503000899050008DC
:100040006301000863010008630100086301000800
:1000500063010008630100086301000863010008F0
:1000600063010008630100086301000863010008E0
:1000700063010008630100086301000863010008D0
:1000800063010008630100086301000863010008C0
:1000900063010008630100086301000863010008B0
:1000A00063010008630100086301000863010008A0
:1000B00063010008630100080906000863010008E5
:1000C0006301000863010008630100086301000880
:1000D0006301000889090008630100086301000842
:1000E0006301000863010008630100086301000860
:1000F0006301000863010008630100086301000850
:10010000630100086301000863010008630100083F
:100110006301000863010008C5060008ED06000839
:10012000630100086301000863010008630100081F
:10013000DFF810D000F01AF800480047010D000861
:10014000AFF3008038050020064880470648004786
:10015000FEE7FEE7FEE7FEE7FEE7FEE7FEE7FEE777
:10016000FEE7FEE7A905000831010008064C074D2F
:1001700006E0E06840F0010394E807009847103477
:10018000AC42F6D3FFF7D8FF740D0008940D0008B9
:1001900000BFFEE770472DE9F0410246002500262A
:1001A000002000230024002791F803C00CF00F0565
:1001B00091F803C00CF0100CBCF1000F03D091F8C3
:1001C00002C04CEA050591F800C0BCF1000F31D027
:1001D000146800202BE04FF0010C0CFA00F3B1F88A
:1001E00000C00CEA03069E4220D183004FF00F0CA2
:1001F0000CFA03F7BC4305FA03FC4CEA040491F83B
:1002000003C0BCF1280F06D14FF0010C0CFA00FC22
:10021000C2F814C00AE091F803C0BCF1480F05D140
:100220004FF0010C0CFA00FCC2F810C0401C08286A
:10023000D1D31460B1F800C0BCF1FF0F34DD5468B5
:1002400000202EE000F1080C4FF0010808FA0CF332
:10025000B1F800C00CEA03069E4221D183004FF0A2
:100260000F0C0CFA03F7BC4305FA03FC4CEA040438
:1002700091F803C0BCF1280F05D100F1080C08FA71
:100280000CF8C2F8148091F803C0BCF1480F07D1F4
:1002900000F1080C4FF0010808FA0CF8C2F81080C1
:1002A000401C0828CED35460BDE8F08141617047FE
:1002B0000161704700BFFEE708B50121482000F04A
:1002C0007BF810208DF803004FF44070ADF800006B
:1002D00003208DF8020069460E48FFF75CFF0320FB
:1002E000ADF8000069460C48FFF755FF4FF48071E8
:1002F0000848FFF7DDFF4FF400710648FFF7D8FF0D
:1003000001210548FFF7D4FF02210348FFF7D0FF82
:1003100008BD0000000C01400018014000BFFEE7CE
:100320007047000070B5002100230F22C47804B389
:10033000154C246804F4E064C4F5E064210AC1F1BA
:100340000403CA40447804FA03F18478144021433A
:1003500009010E4C0678A155047804F01F0501240C
:10036000AC4005786D11AD0005F1E025C5F8004100
:1003700009E0047804F01F050124AC40044D067820
:10038000761145F8264070BD0CED00E000E400E079
:1003900080E100E07047000029B1064AD2690243BB
:1003A000044BDA6104E0034AD2698243014BDA610B
:1003B000704700000010024029B1064A92690243CA
:1003C000044B9A6104E0034A92698243014B9A61AB
:1003D000704700000010024030B5002100220024C8
:1003E00000232D4D6D6805F00C0121B1042905D0C5
:1003F000082923D105E0294D056022E0274D05603D
:100400001FE0254D6D6805F47012234D6D6805F4ED
:100410008034022505EB92421CB9214D55430560FD
:100420000BE01D4D6D6805F400351DB11C4D5543A5
:10043000056002E0194D5543056002E0174D056067
:1004400000BF00BF144D6D6805F0F0010909154D9E
:100450006B5C0568DD4045600F4D6D6805F4E0613B
:10046000090A104D6B5C4568DD4085600A4D6D687A
:1004700005F46051C90A0B4D6B5C4568DD40C560F1
:10048000054D6D6805F44041890B074D6B5CC568EF
:10049000B5FBF3F5056130BD0010024000127A0093
:1004A00000093D000000002010000020704710B53A
:1004B00000F002F810BD00000CB500200190009083
:1004C0003348006840F480303149086000BF30484C
:1004D000006800F4003000900198401C01900098E2
:1004E00018B90198B0F5A06FF1D12948006800F45F
:1004F000003010B10120009001E000200090009831
:10050000012843D12348006840F0100021490860C9
:100510000846006820F0030008600846006840F0C4
:10052000020008601A484068194948600846406857
:1005300048600846406840F480604860084640686B
:1005400020F47C1048600846406840F4E810486099
:100550000846006840F08070086000BF0C480068E2
:1005600000F000700028F9D00948406820F003002E
:10057000074948600846406840F00200486000BFF4
:100580000348406800F00C000828F9D10CBD0000B9
:10059000001002400020024002480068401C01494F
:1005A000086070471400002010B51348006840F040
:1005B00001001149086008464068104908400E498A
:1005C0004860084600680E4908400B490860084624
:1005D000006820F4802008600846406820F4FE008F
:1005E00048604FF41F008860FFF761FF4FF0006024
:1005F0000449086010BD0000001002400000FFF830
:10060000FFFFF6FE08ED00E010B50121284800F0DC
:1006100090F8002835D00121254800F07BF82548C6
:10062000006820B924480068401C2349086021481C
:100630000068012804D120480068401E1E49086057
:100640001D480068B0F57A7F02D30120194908607F
:100650001948006810B9002016490860164800883B
:1006600081B2134800F0E3F84FF400711348FFF72C
:100670001DFE01211248FFF719FE02211048FFF765
:1006800015FE08210A4800F054F880B108210848F6
:1006900000F040F84FF400710848FFF709FE01210F
:1006A0000748FFF705FE02210548FFF701FE10BDD0
:1006B000000800402400002028000020000C014019
:1006C0000018014010B50121064800F032F840B191
:1006D0000121044800F01EF803480068401C02494C
:1006E000086010BD001000401C00002010B5012162
:1006F000064800F01EF840B10121044800F00AF855
:1007000003480068401C0249086010BD0014004006
:1007100020000020CA430282704721B1028842F0C3
:100720000102028004E002884FF6FE731A40028044
:10073000704730B50246002000230024158A05EAE0
:100740000103958905EA010413B10CB1012000E011
:10075000002030BD1AB183890B43838102E0838975
:100760008B4383817047000070B500240022002372
:10077000058C4FF6FF6635400584028C8388848B98
:100780004FF68F752C404FF6FC752C400D882C438E
:100790004FF6FF552A400D894FF6FF7606EA0525EC
:1007A0002A434D8806EA05252A43154DA84202D062
:1007B000144DA8421DD14FF2FF752A404D894FF6C6
:1007C000FF7606EA05252A434FF6FF352A408D8835
:1007D00006EA05252A434EF6FF752B404DF6FF75B8
:1007E0002B408D8906EA05152B43CD8906EA0515B0
:1007F0002B4383808483CD888587028470BD00006D
:10080000002C0140003401400A460021818B4FF644
:10081000F7731940114381837047002101804180A3
:100820008180C180018141818181C181704781873F
:1008300070470000002202881D4B98420ED01D4BCD
:1008400098420BD0B0F1804F08D01B4B984205D096
:100850001A4B984202D01A4B984204D14FF68F732C
:100860001A404B881A43174B984207D0164B9842B0
:1008700004D04FF6FF431A40CB881A4302808B887E
:1008800083850B8803850A4B98420BD0094B98420D
:1008900008D00E4B984205D00D4B984202D00D4B1C
:1008A000984201D10B7A03860123838270470000AE
:1008B000002C0140003401400004004000080040CA
:1008C000000C0040001000400014004000400140B7
:1008D000004401400048014000B587B0012144F2C6
:1008E0000400FFF769FD18208DF81B004FF400701D
:1008F000ADF8180003208DF81A0006A92048FFF76C
:100900004AFC04208DF81B000002ADF8180006A96F
:100910001B48FFF740FC4FF4E13002900020ADF897
:1009200014000C20ADF812000020ADF81000ADF856
:100930000E00ADF80C0002A9124800F0D9F801220F
:1009400040F224410F4800F0ADF8012240F2255159
:100950000C4800F0A7F801210A4800F060F82520B3
:100960008DF8040001208DF8070000208DF80500A7
:100970008DF8060001A8FFF7D5FC07B000BD000008
:10098000000801400038014010B5002440F2255114
:100990000F4800F05DF858B10D4800F015F9C4B2E9
:1009A0000C4801780078401C0A4A10700A484454E8
:1009B00040F22441064800F04BF838B140F224419F
:1009C000034800F01DF801200449086010BD000034
:1009D0000038014030000020380000202C000020AA
:1009E00010B504462146054800F0F3F800BF802109
:1009F000024800F020F80028F9D010BD003801406E
:100A000010B50022002340F66A14A14200D100BFB5
:100A10000A1201249440A3B2DC43048010BD21B12A
:100A2000828942F40052828104E082894DF6FF738C
:100A30001A408281704702460020B1F5007F00D144
:100A400000BF13880B400BB1012000E0002070476D
:100A500070B50246002400230025002040F66A16E7
:100A6000B14200D100BFC1F3421501F01F030126BE
:100A700006FA03F3012D02D19689334006E0022DD8
:100A800002D1168A334001E0968A33400C120126C7
:100A900006FA04F41688344013B10CB1012000E0CA
:100AA000002070BDF0B5034600240026002500207C
:100AB00040F66A17B94200D100BF1846C1F342148C
:100AC00001F01F06012707FA06F5012C01D10C30B1
:100AD00004E0022C01D1103000E014301AB1076894
:100AE0002F43076002E00768AF430760F0BD0000D6
:100AF0002DE9F04786B005460E460024A24600BF09
:100B0000A1460027B08900B100BF2F462C8A4CF6C1
:100B1000FF700440F08804432C82AC894EF6F31039
:100B20000440B08831890843718908430443AC818B
:100B3000AC8A4FF6FF400440B0890443AC8201A860
:100B4000FFF74AFC1F48874202D1DDF810A001E000
:100B5000DDF80CA0A88900F4004040B10AEBCA00FF
:100B600000EB0A1031684900B0FBF1F807E00AEB2E
:100B7000CA0000EB0A1031688900B0FBF1F864206C
:100B8000B8FBF0F004012009642101FB1089A88959
:100B900000F4004040B1322000EBC900B0FBF1F09E
:100BA00000F00700044308E0322000EB0910642144
:100BB000B0FBF1F000F00F0004432C8106B0BDE85B
:100BC000F08700000038014001468888C0F3080023
:100BD0007047C1F3080282807047000000B589B0F9
:100BE00001210420FFF7D8FB01210820FFF7E4FBD7
:100BF00018208DF823004FF48070ADF820000320FA
:100C00008DF8220008A92348FFF7C5FA0020ADF8A7
:100C1000160040F2E730ADF818004720ADF8140098
:100C200005A91D48FFF706FE01A8FFF7F6FD6020A5
:100C3000ADF804000220ADF80C000120ADF806006C
:100C40000020ADF80A0001A91348FFF78DFD082127
:100C50001148FFF7D9FD012211460F48FFF77AFD31
:100C6000012208210C48FFF775FD1E208DF80000B9
:100C700001208DF8030000208DF801008DF802009E
:100C80006846FFF74FFB01210348FFF746FD09B017
:100C900000BD0000000C01400008004000BFFEE75E
:100CA000014A024900F013B8F10C0008340000209A
:100CB00002E008C8121F08C1002AFAD17047704725
:100CC000002001E001C1121F002AFBD170472DE96D
:100CD000F04116460F460446002503E03946B0476A
:100CE000641C6D1C20780028F8D12846BDE8F081EE
:100CF00070B504460D46E0B2FFF772FE204670BDA7
:100D00001749B1F1807F00D31DE021F07F40401EE4
:100D10004FF0E022506150170F22002807DA130726
:100D20001D0E104B00F00F04241F1D5503E0130788
:100D30001C0E0D4B1C5400BF00204FF0E0229061B0
:100D40000720106100BFFFF7B7FAFFF747FFFFF773
:100D5000C3FD06A0FFF7A4FF00E000BFFDE7000011
:100D60004019010018ED00E000E400E061680D0AA0
:100D700000000000940D0008000000203800000072
:100D8000B00C0008CC0D0008380000200005000061
:100D9000C00C00080000000001020304010203046B
:100DA0000607080902040608000000000000000011
:100DB0000000000000000000000000000000000033
:0C0DC00000000000000000000000000027
:0400000508000131BD
:00000001FF
